:020000040800F2
:1000000000000220616900081D200008252000086A
:100010002D200008352000083D20000800000000C9
:100020000000000000000000000000006165000802
:100030004520000800000000B1670008316000089A
:10004000B1690008B1690008B1690008B169000828
:10005000B1690008B1690008B1690008B169000818
:10006000B1690008B1690008B1690008B169000808
:10007000B1690008B1690008B1690008B1690008F8
:1000800053200008B1690008B1690008B16900088F
:10009000B1690008B1690008B1690008B1690008D8
:1000A000B169000861200008B1690008B169000861
:1000B000B1690008B1690008B1690008B1690008B8
:1000C000B1690008B1690008B1690008B1690008A8
:1000D000B1690008B1690008B1690008B169000898
:1000E000410F0008B1690008B1690008B169000852
:1000F000B1690008B1690008B1690008B169000878
:10010000B1690008B1690008B1690008B169000867
:10011000B1690008B1690008B1690008B169000857
:10012000B1690008B1690008B1690008B169000847
:10013000B16900080000000000000000B16900087B
:10014000B1690008B1690008B1690008B169000827
:10015000B1690008B1690008B1690008B169000817
:10016000B1690008B1690008B1690008B169000807
:10017000B1690008B1690008B16900080000000019
:1001800000000000B169000800000000000000004D
:10019000B16900080000000000000000B16900081B
:1001A000000000000000000000000000B16900082D
:1001B000B1690008B1690008B1690008B1690008B7
:0401C000B169000819
:1001D00081F0004102E000BF83F0004330B54FEAF8
:1001E00041044FEA430594EA050F08BF90EA020F65
:1001F0001FBF54EA000C55EA020C7FEA645C7FEAF8
:10020000655C00F0E2804FEA5454D4EB5555B8BF1A
:100210006D420CDD2C4480EA020281EA030382EA8B
:10022000000083EA010180EA020281EA0303362D1D
:1002300088BF30BD11F0004F4FEA01314FF4801CF0
:100240004CEA113102D0404261EB410113F0004F02
:100250004FEA03334CEA133302D0524263EB4303B9
:1002600094EA050F00F0A780A4F10104D5F1200E57
:100270000DDB02FA0EFC22FA05F2801841F10001B2
:1002800003FA0EF2801843FA05F359410EE0A5F186
:1002900020050EF1200E012A03FA0EFC28BF4CF0B7
:1002A000020C43FA05F3C01851EBE37101F000456D
:1002B00007D54FF0000EDCF1000C7EEB00006EEB7A
:1002C0000101B1F5801F1BD3B1F5001F0CD3490804
:1002D0005FEA30004FEA3C0C04F101044FEA44525B
:1002E00012F5800F80F09A80BCF1004F08BF5FEAE2
:1002F000500C50F1000041EB045141EA050130BDC2
:100300005FEA4C0C404141EB0101013C28BFB1F5D3
:10031000801FE9D291F0000F04BF01460020B1FA1E
:1003200081F308BF2033A3F10B03B3F120020CDAF1
:100330000C3208DD02F1140CC2F10C0201FA0CF0CF
:1003400021FA02F10CE002F11402D8BFC2F1200C34
:1003500001FA02F120FA0CFCDCBF41EA0C019040EA
:10036000E41AA2BF01EB0451294330BD6FEA040433
:100370001F3C1CDA0C340EDC04F11404C4F120021E
:1003800020FA04F001FA02F340EA030021FA04F330
:1003900045EA030130BDC4F10C04C4F1200220FA87
:1003A00002F001FA04F340EA0300294630BD21FAC5
:1003B00004F0294630BD94F0000F83F4801306BF8B
:1003C00081F480110134013D4EE77FEA645C18BF7F
:1003D0007FEA655C29D094EA050F08BF90EA020F16
:1003E00005D054EA000C04BF1946104630BD91EA0E
:1003F000030F1EBF0021002030BD5FEA545C05D111
:100400004000494128BF41F0004130BD14F580044F
:100410003CBF01F5801130BD01F0004545F0FE41C3
:1004200041F470014FF0000030BD7FEA645C1ABFF8
:10043000194610467FEA655C1CBF0B46024650EA2F
:10044000013406BF52EA033591EA030F41F400215B
:1004500030BD00BF90F0000F04BF0021704730B5E1
:100460004FF4806404F132044FF000054FF00001B6
:1004700050E700BF90F0000F04BF0021704730B577
:100480004FF4806404F1320410F0004548BF40424C
:100490004FF000013EE700BF42004FEAE2014FEAA1
:1004A00031014FEA02701FBF12F07F4393F07F4F7C
:1004B00081F06051704732F07F4208BF704793F07F
:1004C0007F4F04BF41F40021704730B54FF4607492
:1004D00001F0004521F000411CE700BF50EA010295
:1004E00008BF704730B54FF000050AE050EA01023E
:1004F00008BF704730B511F0004502D5404261EBAE
:1005000041014FF4806404F132045FEA915C3FF4EE
:10051000D8AE4FF003025FEADC0C18BF03325FEA8B
:10052000DC0C18BF033202EBDC02C2F1200300FA3C
:1005300003FC20FA02F001FA03FE40EA0E0021FA61
:1005400002F11444BDE600BF4FF0FF3C06E000BFDF
:100550004FF0010C02E000BF4FF0010C4DF804CD4C
:100560004FEA410C7FEA6C5C4FEA430C18BF7FEA0C
:100570006C5C1BD001B050EA410C0CBF52EA430C3A
:1005800091EA030F02BF90EA020F0020704710F1BA
:10059000000F91EA030F58BF994208BF90422CBF49
:1005A000D8176FEAE37040F0010070474FEA410C42
:1005B0007FEA6C5C02D150EA013C07D14FEA430C60
:1005C0007FEA6C5CD6D152EA033CD3D05DF8040BD1
:1005D000704700BF8446104662468C461946634603
:1005E00000E000BF01B5FFF7B7FF002848BF10F1DA
:1005F000000F01BD4DF808EDFFF7F4FF0CBF01201F
:1006000000205DF808FB00BF4DF808EDFFF7EAFF9A
:1006100034BF012000205DF808FB00BF4DF808ED55
:10062000FFF7E0FF94BF012000205DF808FB00BF4A
:100630004DF808EDFFF7CEFF94BF012000205DF8D4
:1006400008FB00BF4DF808EDFFF7C4FF34BF0120E1
:1006500000205DF808FB00BF4FEA410212F50012CE
:1006600015D211D56FF47873B3EB625212D94FEAF9
:10067000C12343F0004343EA505311F0004F23FAE3
:1006800002F018BF404270474FF00000704750EA38
:10069000013005D111F0004008BF6FF000407047F5
:1006A0004FF00000704700BF53B94AB9002908BF96
:1006B00000281CBF4FF0FF314FF0FF3000F00CB8A6
:1006C000ADF1080C6DE904CE06F074F9DDF804E034
:1006D000DDE9022304B07047704700BF0348044BB4
:1006E000834202D0034B03B1184770473401002006
:1006F00034010020000000000548064B1B1AD90FEA
:1007000001EBA301491002D0034B03B11847704716
:1007100034010020340100200000000010B5064C18
:10072000237843B9FFF7DAFF044B13B10448AFF362
:1007300000800123237010BD38010020000000005C
:10074000406E000808B5054B1BB105490548AFF3DD
:100750000080BDE80840FFF7CFBF00BF00000000E9
:100760003C010020406E000880B483B000AF034617
:100770003960FB7197F90730002B0ADB3B68DAB26E
:100780000C4997F907301201D2B20B4483F80023C9
:100790000AE03B68DAB20849FB7903F00F03043B37
:1007A0001201D2B20B441A7600BF0C37BD465DF879
:1007B000047B704700E100E000ED00E080B584B00C
:1007C00000AFF860B9607A60FB68DBB20F3BDBB268
:1007D0005BB279681846FFF7C7FF00BF1037BD4608
:1007E00080BD000080B584B000AF78607B681B6876
:1007F000FB60FB680133BB600DE0FB689B000D4AAA
:100800001344184600F03DFE0B4B1B68002B08D12B
:10081000B86800F025FB094B1B78DBB2002BECD14C
:1008200000E000BF002000F0B3FD002318461037A1
:10083000BD4680BD60010020A00100200000002016
:1008400080B584B000AF7860224B1B681B68002B1A
:100850000CBF01230023DBB21A461F4B1A7029E09C
:100860001E4800F00EFE0123FB6012E0194B1A68CF
:10087000FB685B0013449B88002B07D1FB68013B9E
:100880009B00174A1344184600F019FEFB68013319
:10089000FB60FB68042BE9DD002000F0E1FA0D4B62
:1008A0001B681B68002B14BF01230023DBB21A4610
:1008B0000C4B1A70084B1B78DBB2002BD0D1786838
:1008C00000F012F8002000F063FD002318461037F6
:1008D000BD4680BD846E0008000000205C01002041
:1008E000600100205401002090B58BB004AF786007
:1008F000374B01221A6000237B612EE07B699B004D
:10090000344A1344184600F0DAFD0346002B0BD09E
:100910004FF0500383F31188BFF36F8FBFF34F8FF6
:100920003B6100BF00BFFDE77B699B00294A134480
:10093000184600F0E2FD0346002B0BD04FF05003A9
:1009400083F31188BFF36F8FBFF34F8FFB6000BF3E
:1009500000BFFDE77B6901337B617B69032BCDDD44
:1009600000237B6123E01C497A691346DB009B1A54
:100970009B000B44194A03926C4603F1100207CA0C
:1009800084E807000FCB00F00EFD0346002B0BD0D0
:100990004FF0500383F31188BFF36F8FBFF34F8F76
:1009A000BB6000BF00BFFDE77B6901337B617B69F2
:1009B000032BD8DD0A4B00221A7000F0ABFA09486D
:1009C00000F07DFD002318461C37BD4690BD00BFDA
:1009D000A001002060010020A40100209C01002053
:1009E000000000205801002080B582B000AF786080
:1009F0003960164B27221A60144B26225A60134B7B
:100A000025229A60114B2422DA6002F057F901F096
:100A1000ABF900F0EFFA01F091FA01F077FA01F08A
:100A2000F3F90B4B1B6800221A6000F07BFA00F010
:100A30003FFA04209FED070A00F032FB064800F061
:100A400020FD002318460837BD4680BD1402002053
:100A5000846E00086F12833A5801002080B483B07E
:100A600000AF0346FB7197F90730002B0BDBFB79D6
:100A700003F01F02074997F907305B09012000FACC
:100A800002F241F8232000BF0C37BD465DF8047B1D
:100A9000704700BF00E100E080B483B000AF786031
:100AA000074B1A687B6813407A689A420CBF01238F
:100AB0000023DBB218460C37BD465DF8047B704757
:100AC000003C014080B483B000AF7860074B5A69A6
:100AD0007B6813407A689A420CBF01230023DBB283
:100AE00018460C37BD465DF8047B7047003C01405A
:100AF00080B483B000AF7860044A7B68536100BF64
:100B00000C37BD465DF8047B704700BF003C0140D8
:100B100080B483B000AF786039607B683A689A61CE
:100B200000BF0C37BD465DF8047B704780B483B0CE
:100B300000AF786039603B681A047B689A6100BF37
:100B40000C37BD465DF8047B7047000080B400AFF1
:100B50001B4BDA88013292B2DA80194BDB88092B01
:100B600002D9174B0022DA80154B1A89013292B252
:100B70001A81134B1B89632B02D9114B00221A8156
:100B80000F4B5A89013292B25A810D4B5B89B3F5F2
:100B9000FA7F02D30A4B00225A81094B9A8901320B
:100BA00092B29A81064B9B89B3F57A7F02D3044BAC
:100BB00000229A8100BFBD465DF8047B704700BFEC
:100BC0006802002080B500AFFFF7C0FF00BF80BD06
:100BD000B0B584B000AF324B1B6A1846FFF74AFC31
:100BE00004460D462F4BD3E90C014FF000022E4B6B
:100BF000FFF7F2FA02460B4620462946FFF718FD9A
:100C00000346002B03D0264B00221A6204E0244B3B
:100C10001B6A0133224A1362214BD3E90023C7E93F
:100C20000223D7E90201FFF717FD0346002B02D08C
:100C3000012B06D00BE01A4BD3E90223C7E90223AC
:100C40000BE0174BD3E90423C7E9022305E0144B5B
:100C5000D3E90623C7E9022300BF144B3B604FF0E2
:100C600000024FF00003D7E90201FFF7C3FC03467F
:100C7000002B02D120237B6001E000237B607B6896
:100C800019463868FFF744FF7B68DB4303F0200315
:100C900019463868FFF74AFF00BF1037BD46B0BDA0
:100CA00030020020080000200000F03F0000024059
:100CB000B0B500AF1F4B5B6A1846FFF7DBFB1E4B5E
:100CC000D3E91E23FFF7A0FC0346002B07D0194BE6
:100CD0005B6A002B03DB184BD3E91A2303E04FF0C8
:100CE00000024FF000031349C1E90223114B5B6A74
:100CF0001846FFF7BFFB04460D460F4BD3E91C0116
:100D00004FF000020D4BFFF767FA02460B462046F4
:100D10002946FFF78DFC0346002B03D0054B00222C
:100D20005A6204E0034B5B6A0133024A536200BF1C
:100D3000B0BD00BF30020020080000200000F03FDE
:100D4000B0B500AF1F4B9B6A1846FFF793FB1E4BD5
:100D5000D3E92623FFF758FC0346002B07D0194B95
:100D60009B6A002B03DB184BD3E9222303E04FF0EF
:100D700000024FF000031349C1E90423114B9B6AA1
:100D80001846FFF777FB04460D460F4BD3E92401C5
:100D90004FF000020D4BFFF71FFA02460B462046AC
:100DA0002946FFF745FC0346002B03D0054B0022E4
:100DB0009A6204E0034B9B6A0133024A936200BFCC
:100DC000B0BD00BF30020020080000200000F03F4E
:100DD000B0B500AF1F4BDB6A1846FFF74BFB1E4B4D
:100DE000D3E92E23FFF710FC0346002B07D0194B45
:100DF000DB6A002B03DB184BD3E92A2303E04FF017
:100E000000024FF000031349C1E90623114BDB6ACE
:100E10001846FFF72FFB04460D460F4BD3E92C0174
:100E20004FF000020D4BFFF7D7F902460B46204664
:100E30002946FFF7FDFB0346002B03D0054B00229C
:100E4000DA6204E0034BDB6A0133024AD36200BF7B
:100E5000B0BD00BF30020020080000200000F03FBD
:100E600080B582B000AF78607B68042B1BD801A2EC
:100E700052F823F0890E00088F0E0008950E000826
:100E80009B0E0008A10E0008FFF79CFE0CE0FFF788
:100E90009FFE09E0FFF70CFF06E0FFF751FF03E0BC
:100EA000FFF796FF00E000BF00BF0837BD4680BDDA
:100EB00080B400AF144BD3E914231449C1E90223D1
:100EC000114BD3E916231149C1E904230E4BD3E991
:100ED00018230E49C1E906230B4BD3E912230B4912
:100EE000C1E90023084B93F8CA20084B83F830204F
:100EF000054BD3E908230649C1E9002300BFBD46DD
:100F00005DF8047B704700BF08000020300200201D
:100F10002802002080B400AF00BFBD465DF8047B0E
:100F20007047000080B500AF032204493720FFF767
:100F300045FC2820FFF792FD00BF80BD410F00084F
:100F400080B582B000AF4FF40050FFF7A5FD034617
:100F5000002B08D04FF40050FFF7B4FD0346002BE0
:100F600001D0012300E00023002B31D04FF40050CA
:100F7000FFF7BEFD1B4B1B78DBB2012B28D11A4BB0
:100F800093F83020194B93F8C9301344FB71164B7A
:100F900093F83030154ADB001344D3E90023144999
:100FA000C1E90023114B1B7EFA799A4206D90F4BF7
:100FB00093F8C8200C4B83F8302003E00A4AFB79F1
:100FC00082F830300A4BD3E900230749C1E90023F6
:100FD000BFF36F8F00BFBFF34F8F00BF00BF083755
:100FE000BD4680BD00000020300200200800002027
:100FF0002802002080B400AF00BFBD465DF8047B2E
:10100000704700BF80B483B000AF03463960FB7106
:1010100097F90730002B0ADB3B68DAB20C4997F9E5
:1010200007301201D2B20B4483F800230AE03B6878
:10103000DAB20849FB7903F00F03043B1201D2B284
:101040000B441A7600BF0C37BD465DF8047B704731
:1010500000E100E000ED00E080B582B000AF786014
:10106000034800F02CFA00BF0837BD4680BD00BF22
:101070005C01002080B582B000AF78607868FFF72F
:10108000DFFB00BF0837BD4680BD80B582B000AF32
:1010900078607868FFF7A6FB00BF0837BD4680BDC3
:1010A00080B58CB000AF87ED010A386000218F4811
:1010B00000F0D0F9B862BB6A002B0BD04FF05003A0
:1010C00083F31188BFF36F8FBFF34F8F7B6200BF35
:1010D00000BFFDE70021864800F0BCF9B862BB6A9A
:1010E000002B0BD04FF0500383F31188BFF36F8FA9
:1010F000BFF34F8F3B6200BF00BFFDE77D4B28224F
:101100001A617C4B00229A617A4B80229A82794B39
:10111000794A07CA03C31A7000227849754800F05B
:1011200003F9B862BB6A002B0BD04FF0500383F376
:101130001188BFF36F8FBFF34F8FFB6100BF00BFFC
:10114000FDE70023FB6276E06D49FB6AFA6A41F82D
:101150002320FB6A9B006B4A13440021184600F0D1
:1011600079F9B862BB6A002B0BD04FF0500383F3C0
:101170001188BFF36F8FBFF34F8FBB6100BF00BFFC
:10118000FDE7FB6AC3F1270318465F49FA6A134675
:10119000DB009B1A9B000B44103318605A49FA6A13
:1011A0001346DB009B1A9B000B4410331B68002B7B
:1011B0000BD14FF0500383F31188BFF36F8FBFF350
:1011C0004F8F7B6100BF00BFFDE74F49FA6A1346AE
:1011D000DB009B1A9B000B44183300221A604A491B
:1011E000FA6A1346DB009B1A9B000B4414338022DF
:1011F0001A80FA6A1346DB009B1A9B00424A981831
:10120000FB6A9B003E4A13441A46404900F08CF8A2
:10121000B862BB6A002B0BD04FF0500383F31188E8
:10122000BFF36F8FBFF34F8F3B6100BF00BFFDE780
:10123000FB6A0133FB62FB6A032B85DD02214FF061
:10124000FF30FFF7DFFE324B00221A60314B0022E5
:101250001A60D7ED017A9FED307A67EE877AFCEE5F
:10126000E77A17EE902A2B4B5A602A4B01229A609C
:10127000274B1B681A46274BDA60284B284A92E80E
:10128000030018600433198002330A0C1A702549D0
:10129000204800F09AF8B862BB6A002B0BD04FF0E0
:1012A000500383F31188BFF36F8FBFF34F8FFB6041
:1012B00000BF00BFFDE74FF47A71164800F0A6F8B2
:1012C000B862BB6A002B0BD04FF0500383F3118838
:1012D000BFF36F8FBFF34F8FBB6000BF00BFFDE751
:1012E00003F0A8FC00BF3037BD4680BD5C01002084
:1012F0005801002080010020586E00087510000879
:101300007001002060010020A40100208B10000863
:10131000980200207802002000007A448802002011
:10132000646E00085910000880B588B002AFF860FC
:10133000B9607A60FB68002B01D1012324E0F968D1
:10134000FB68988AFB681B69FA681832019200935F
:101350007B680246B86803F073FA7861FB689B69A2
:10136000002B0BD14FF0500383F31188BFF36F8F25
:10137000BFF34F8F3B6100BF00BFFDE77B69012BCF
:1013800014BF01230023DBB218461837BD4680BDC9
:1013900080B582B000AF7860002003F0D7FB00BFBB
:1013A0000837BD4680BD84B080B500AF07F1080C9A
:1013B0008CE80F003B6A184603F0C8FB0023184670
:1013C000BD46BDE8804004B0704790B585B002AF1F
:1013D000786039607B6803F110007B6859687B682E
:1013E0009A687B68DC683B680093234604F0B2FA95
:1013F00002467B681A607B681B68002B01D00023C3
:1014000000E0012318460C37BD4690BD90B585B06D
:1014100002AF786039607B68002B16D07B681B6850
:10142000002B12D07B681C6803F020FD02463B684D
:10143000009300230121204604F0EAFA0346012B21
:1014400014BF01230023DBB200E0012318460C3750
:10145000BD4690BD80B582B000AF786039603B6812
:1014600019460A2002F0EFFB02467B681A607B688F
:10147000002B01D0002300E0012318460837BD46A9
:1014800080BD80B582B000AF78607B68002B03D050
:101490007B681B68002B01D101230CE07B681B6873
:1014A0004FF0FF31184602F085FE0346012B14BFB2
:1014B00001230023DBB218460837BD4680BD80B546
:1014C00082B000AF78607B68002B03D07B681B681C
:1014D000002B01D101230CE07B6818680023002257
:1014E000002102F0E5FB0346012B14BF012300237A
:1014F000DBB218460837BD4680BD80B582B000AF6C
:1015000078607B68002B06D07B681B68184602F069
:1015100061FF002300E0012318460837BD4680BD67
:1015200080B400AF044BDB681B0A03F007031846C6
:10153000BD465DF8047B704700ED00E080B483B0E9
:1015400000AF0346FB7197F90730002B0BDBFB79EB
:1015500003F01F02074997F907305B09012000FAE1
:1015600002F241F8232000BF0C37BD465DF8047B32
:10157000704700BF00E100E080B483B000AF0346D5
:101580003960FB7197F90730002B0ADB3B68DAB250
:101590000C4997F907301201D2B20B4483F80023AB
:1015A0000AE03B68DAB20849FB7903F00F03043B19
:1015B0001201D2B20B441A7600BF0C37BD465DF85B
:1015C000047B704700E100E000ED00E080B489B0EA
:1015D00000AFF860B9607A60FB6803F00703FB6155
:1015E000FB69C3F10703042B28BF0423BB61FB691C
:1015F0000433062B02D9FB69033B00E000237B6127
:101600004FF0FF32BB6902FA03F3DA43BB681A40BA
:101610007B699A404FF0FF317B6901FA03F3D943AC
:101620007B680B40134318462437BD465DF8047BA6
:101630007047000080B485B000AFF860B9607A6090
:101640000D4ABB6813441B781A46FB6813441B6899
:1016500023F0C0020849BB680B441B781946FB689D
:101660000B4419467B6813430B6000BF1437BD461B
:101670005DF8047B704700BF886E000880B485B0B9
:1016800000AFF860B9607A600D4ABB6813441B78FC
:101690001A46FB6813441B6823F490720849BB6820
:1016A0000B441B781946FB680B4419467B681343AF
:1016B0000B6000BF1437BD465DF8047B704700BF68
:1016C000886E000880B485B000AFF860B9607A60B9
:1016D0000D4ABB6813441B781A46FB6813441B6809
:1016E00023F400720849BB680B441B781946FB6859
:1016F0000B4419467B6813430B6000BF1437BD468B
:101700005DF8047B704700BF886E000880B485B028
:1017100000AFF860B9607A600D4ABB6813441B786B
:101720001A46FB6813441B6823F480620849BB68AF
:101730000B441B781946FB680B4419467B6813431E
:101740000B6000BF1437BD465DF8047B704700BFD7
:10175000886E000880B485B000AFF860B9607A6028
:101760000D4ABB6813441B781A46FB6813441B6878
:1017700023F4C0520849BB680B441B781946FB6828
:101780000B4419467B6813430B6000BF1437BD46FA
:101790005DF8047B704700BF886E000880B485B098
:1017A00000AFF860B9607A600D4ABB6813441B78DB
:1017B0001A46FB6813441B6823F4C0420849BB68FF
:1017C0000B441B781946FB680B4419467B6813438E
:1017D0000B6000BF1437BD465DF8047B704700BF47
:1017E000886E000880B485B000AFF860B9607A6098
:1017F0000D4ABB6813441B781A46FB6813441B68E8
:1018000023F440320849BB680B441B781946FB6837
:101810000B4419467B6813430B6000BF1437BD4669
:101820005DF8047B704700BF886E000880B485B007
:1018300000AFF860B9607A600D4ABB6813441B784A
:101840001A46FB6813441B6823F060620849BB68B2
:101850000B441B781946FB680B4419467B681343FD
:101860000B6000BF1437BD465DF8047B704700BFB6
:10187000886E000880B483B000AF786039600C4A8D
:101880003B6813441B781A467B6813445B6908491C
:101890003A680A44127811467A680A4423F004032D
:1018A000536100BF0C37BD465DF8047B704700BF35
:1018B000886E000880B400AF054B1B68044A43F0F3
:1018C0000103136000BFBD465DF8047B704700BF95
:1018D0000038024080B400AF064B1B6803F00203DF
:1018E000022B0CBF01230023DBB21846BD465DF876
:1018F000047B70470038024080B483B000AF78604A
:10190000074B1B6823F0F8027B68DB000449134394
:101910000B6000BF0C37BD465DF8047B704700BF0D
:101920000038024080B483B000AF7860064B9B68FB
:1019300023F0030204497B6813438B6000BF0C371C
:10194000BD465DF8047B70470038024080B400AFAC
:10195000044B9B6803F00C031846BD465DF8047BFE
:10196000704700BF0038024080B483B000AF786099
:10197000064B9B6823F0F00204497B6813438B609D
:1019800000BF0C37BD465DF8047B7047003802404D
:1019900080B483B000AF7860064B9B6823F4E052BC
:1019A00004497B6813438B6000BF0C37BD465DF86C
:1019B000047B70470038024080B483B000AF786089
:1019C000064B9B6823F4604204497B6813438B6099
:1019D00000BF0C37BD465DF8047B704700380240FD
:1019E00080B483B000AF7860074BD3F88C3023F01D
:1019F000807205497B681343C1F88C3000BF0C37F7
:101A0000BD465DF8047B70470038024080B400AFEB
:101A1000054B1B68044A43F08073136000BFBD464A
:101A20005DF8047B704700BF0038024080B400AF0F
:101A3000074B1B6803F00073B3F1007F0CBF012359
:101A40000023DBB21846BD465DF8047B704700BF3B
:101A50000038024080B485B000AFF860B9607A60A9
:101A60003B60114B5A68114B1340F968BA68114337
:101A70007A6892010A430C4913434B600A4B5B6836
:101A800023F4403208493B6813434B60064B5B68C4
:101A900023F0E04204493B6813434B6000BF143716
:101AA000BD465DF8047B7047003802400080BFFFF0
:101AB00080B485B000AF7860084B1A6B07497B682B
:101AC00013430B63054B1A6B7B681340FB60FB6889
:101AD00000BF1437BD465DF8047B704700380240F4
:101AE00080B485B000AF7860084B1A6C07497B68FA
:101AF00013430B64054B1A6C7B681340FB60FB6857
:101B000000BF1437BD465DF8047B704700380240C3
:101B100080B487B000AF78603960174A3B68DBB2A9
:101B2000023352F823203B681B0CDB4302EA03011B
:101B30003B681B0C3B613B6993FAA3F3FB60FB68BA
:101B40007B617B69002B01D1202303E07B69B3FA21
:101B500083F3DBB21A467B6803FA02F206483B685D
:101B6000DBB20A43023340F8232000BF1C37BD46D6
:101B70005DF8047B704700BF0038014080B483B03B
:101B800000AF7860064B1B6823F00F0204497B68A6
:101B900013430B6000BF0C37BD465DF8047B7047F4
:101BA000003C024080B400AF044B1B6803F00F03FD
:101BB0001846BD465DF8047B704700BF003C0240FC
:101BC00080B400AF054B1B68044A23F480331360D4
:101BD00000BFBD465DF8047B704700BF0070004049
:101BE00080B483B000AF7860064B1B6823F440429A
:101BF00004497B6813430B6000BF0C37BD465DF89A
:101C0000047B70470070004080B483B000AF786000
:101C10007B68DB6843F400527B68DA6000BF0C37F6
:101C2000BD465DF8047B704780B483B000AF786038
:101C30007B681B6923F490427B681A617B685B694F
:101C400023F02A027B685A6100BF0C37BD465DF85D
:101C5000047B704780B48BB000AFF860B9607A60E5
:101C6000FB681A68BB687B617B6993FAA3F33B61ED
:101C70003B69BB61BB69002B01D1202303E0BB6939
:101C8000B3FA83F3DBB25B00032101FA03F3DB4316
:101C90001A40BB683B623B6A93FAA3F3FB61FB69A2
:101CA0007B627B6A002B01D1202303E07B6AB3FABD
:101CB00083F3DBB25B00796801FA03F31A43FB6834
:101CC0001A6000BF2C37BD465DF8047B704780B4B6
:101CD0008BB000AFF860B9607A60FB68DA68BB6807
:101CE0007B617B6993FAA3F33B613B69BB61BB6991
:101CF000002B01D1202303E0BB69B3FA83F3DBB2ED
:101D00005B00032101FA03F3DB431A40BB683B622B
:101D10003B6A93FAA3F3FB61FB697B627B6A002B4E
:101D200001D1202303E07B6AB3FA83F3DBB25B00CB
:101D3000796801FA03F31A43FB68DA6000BF2C37B5
:101D4000BD465DF8047B704780B483B000AF786017
:101D500039603B681A047B689A6100BF0C37BD4646
:101D60005DF8047B7047000080B500AF0220FFF7EC
:101D700005FF00BFFFF716FF0346022BFAD14FF411
:101D80008040FFF72DFFFFF71BFF1020FFF7B4FD8A
:101D9000FFF790FD00BFFFF79DFD0346012BFAD131
:101DA0000023562208210020FFF754FEFFF72EFEE5
:101DB00000BFFFF73BFE0346012BFAD10020FFF7DF
:101DC000D3FD4FF48050FFF7E3FD0020FFF7F4FD53
:101DD0000220FFF7A7FD00BFFFF7B8FD0346082B61
:101DE000FAD1084800F00EFD0F2000F06FF903460D
:101DF000002B01D000F00CF90020FFF7F1FD00BF2F
:101E000080BD00BF8041200580B58EB000AF07F1D6
:101E10001C0300221A605A609A60DA601A615A61E3
:101E20009A613B1D00221A605A609A60DA601A615A
:101E30005A614FF40030FFF753FE0120FFF738FEE0
:101E40000C237B600223BB600323FB6000233B6108
:101E500000237B610723BB613B1D1946284800F026
:101E6000D8FA4FF0006205212648FFF7DFFC002278
:101E700005212448FFF7DEFB4FF48032052121487D
:101E8000FFF7B0FC002205211E48FFF7F7FB0022F8
:101E900005211C48FFF716FC4FF480620521194804
:101EA000FFF734FC002205211648FFF753FC0022FF
:101EB00005211448FFF772FC05211248FFF7DAFCF0
:101EC0004FF4E133FB6100233B6200237B6200237C
:101ED000BB620C23FB6200233B6300237B6307F19F
:101EE0001C031946084801F035FC0748FFF79CFE23
:101EF0000548FFF789FE00BF3837BD4680BD00BFEB
:101F000000000240006002400044004080B500AF85
:101F10004FF40010FFF7CCFDFFF702FB0346002251
:101F200005211846FFF752FB034619461020FFF71C
:101F300023FB1020FFF702FB00BF80BD80B588B0F7
:101F400000AF07F1180300221A605A603B460022D6
:101F50001A605A609A60DA601A615A610420FFF7C9
:101F6000A7FD8020FFF7A4FD0120FFF7A1FD0220BF
:101F7000FFF79EFD20211A48FFF7E6FE19490220CF
:101F8000FFF7C6FD4FF40053BB6101233B770023ED
:101F90007B770123BB7707F11803184600F0DAFCC2
:101FA00000224FF400511048FFF791FE00224FF439
:101FB00000510D48FFF74EFE20233B6001237B605C
:101FC0000023BB600023FB6000233B613B461946B6
:101FD000034800F01EFA00BF2037BD4680BD00BF99
:101FE000000002400300F0000008024080B582B00B
:101FF00000AF78607B681B68044A934201D100F00F
:102000007FFE00BF0837BD4680BD00BF0000014015
:1020100080B400AF72B600BF00BFFDE780B400AF70
:1020200000BFFDE780B400AF00BFFDE780B400AFA4
:1020300000BFFDE780B400AF00BFFDE780B400AF94
:1020400000BFFDE780B400AF00BFBD465DF8047B74
:10205000704780B400AF00BFBD465DF8047B704799
:1020600080B500AF024800F029FF00BF80BD00BF6F
:102070009C02002080B582B000AF00237B60124B31
:102080005B6C114A43F4804353640F4B5B6C03F465
:1020900080437B607B6800233B600B4B1B6C0A4AD0
:1020A00043F080531364084B1B6C03F080533B6078
:1020B0003B6800220F216FF0010000F0D5FD00BF4A
:1020C0000837BD4680BD00BF0038024080B58CB0E7
:1020D00000AF78600023FB620023BB6200227968B6
:1020E000192000F0C1FD192000F0DAFD0023FB608B
:1020F0001E4B5B6C1D4A43F0010353641B4B5B6C2E
:1021000003F00103FB60FB6807F1100207F1140301
:102110001146184600F0BEFC00F0A8FCF862FB6A0D
:10212000134AA2FB03239B0C013BBB62114B124AD7
:102130001A60104B40F2E732DA600E4ABB6A536015
:102140000C4B00221A610B4B00229A60094800F0E8
:10215000EBFD0346002B04D1064800F03FFE03468A
:1021600000E0012318463037BD4680BD00380240EC
:1021700083DE1B439C0200200000014080B48BB032
:1021800000AFF860B9607A60FB681A68BB687B6171
:102190007B6993FAA3F33B613B69BB61BB69002B8D
:1021A00001D1202303E0BB69B3FA83F3DBB25B0008
:1021B000032101FA03F3DB431A40BB683B623B6A2D
:1021C00093FAA3F3FB61FB697B627B6A002B01D16D
:1021D000202303E07B6AB3FA83F3DBB25B00796808
:1021E00001FA03F31A43FB681A6000BF2C37BD469F
:1021F0005DF8047B704780B485B000AFF860B960CB
:102200007A60FB685A68BB68DB431A40BB68796830
:1022100001FB03F31A43FB685A6000BF1437BD4645
:102220005DF8047B704780B48BB000AFF860B96094
:102230007A60FB689A68BB687B617B6993FAA3F359
:102240003B613B69BB61BB69002B01D1202303E0EB
:10225000BB69B3FA83F3DBB25B00032101FA03F33A
:10226000DB431A40BB683B623B6A93FAA3F3FB6112
:10227000FB697B627B6A002B01D1202303E07B6A30
:10228000B3FA83F3DBB25B00796801FA03F31A4314
:10229000FB689A6000BF2C37BD465DF8047B704731
:1022A00080B48BB000AFF860B9607A60FB68DA6820
:1022B000BB687B617B6993FAA3F33B613B69BB61BC
:1022C000BB69002B01D1202303E0BB69B3FA83F380
:1022D000DBB25B00032101FA03F3DB431A40BB6866
:1022E0003B623B6A93FAA3F3FB61FB697B627B6A07
:1022F000002B01D1202303E07B6AB3FA83F3DBB226
:102300005B00796801FA03F31A43FB68DA6000BFE7
:102310002C37BD465DF8047B704780B48BB000AFAE
:10232000F860B9607A60FB681A6ABB687B617B6998
:1023300093FAA3F33B613B69BB61BB69002B01D1FD
:10234000202303E0BB69B3FA83F3DBB29B000F21C8
:1023500001FA03F3DB431A40BB683B623B6A93FA22
:10236000A3F3FB61FB697B627B6A002B01D1202315
:1023700003E07B6AB3FA83F3DBB29B00796801FA6E
:1023800003F31A43FB681A6200BF2C37BD465DF8A1
:10239000047B704780B48BB000AFF860B9607A609E
:1023A000FB685A6ABB681B0A7B617B6993FAA3F3DB
:1023B0003B613B69BB61BB69002B01D1202303E07A
:1023C000BB69B3FA83F3DBB29B000F2101FA03F37D
:1023D000DB431A40BB681B0A3B623B6A93FAA3F3D8
:1023E000FB61FB697B627B6A002B01D1202303E048
:1023F0007B6AB3FA83F3DBB29B00796801FA03F3DB
:102400001A43FB685A6200BF2C37BD465DF8047B57
:10241000704780B58AB000AF7860396000237B6276
:1024200000233B623B681B68BB61BB6993FAA3F363
:102430007B617B69FB61FB69002B01D1202303E0F9
:10244000FB69B3FA83F3DBB27B6257E03B681A683F
:1024500001217B6A01FA03F313403B623B6A002BC4
:1024600049D03B685B68012B03D03B685B68022B5B
:102470000DD13B689B681A46396A7868FFF7D3FE2E
:102480003B68DB681A46396A7868FFF7B4FE3B6838
:102490001B691A46396A7868FFF702FF3B685B6878
:1024A000022B21D13B6AFB60FB6893FAA3F3BB606C
:1024B000BB683B613B69002B01D1202303E03B69F2
:1024C000B3FA83F3DBB2072B07D83B685B691A4684
:1024D000396A7868FFF721FF06E03B685B691A46B6
:1024E000396A7868FFF756FF3B685B681A46396AB5
:1024F0007868FFF743FE7B6A01337B623B681A68AA
:102500007B6A22FA03F3002BA0D100231846283758
:10251000BD4680BD80B400AF044B9B6803F00C0344
:102520001846BD465DF8047B704700BF0038024086
:1025300080B400AF044B9B6803F0F0031846BD461F
:102540005DF8047B704700BF0038024080B400AFE4
:10255000044B9B6803F4E0531846BD465DF8047BCA
:10256000704700BF0038024080B400AF044B9B6846
:1025700003F460431846BD465DF8047B704700BF16
:102580000038024080B400AF044B5B6803F4800362
:102590001846BD465DF8047B704700BF0038024016
:1025A00080B400AF044B5B689B09C3F30803184673
:1025B000BD465DF8047B70470038024080B400AF30
:1025C000044B5B6803F440331846BD465DF8047B5A
:1025D000704700BF0038024080B400AF044B5B6816
:1025E00003F0E0431846BD465DF8047B704700BF2A
:1025F0000038024080B400AF044B5B6803F03F0337
:102600001846BD465DF8047B704700BF00380240A5
:1026100080B582B000AF786000F020F802467B6899
:102620001A607B681B68184600F05CF802467B68FD
:102630005A607B685B68184600F06AF802467B685F
:102640009A607B685B68184600F076F802467B6803
:10265000DA6000BF0837BD4680BD000080B582B09B
:1026600000AF00237B60FFF755FF03460C2B2DD8EE
:1026700001A252F823F000BFAD260008CD260008C5
:10268000CD260008CD260008B3260008CD26000878
:10269000CD260008CD260008B9260008CD26000862
:1026A000CD260008CD260008C32600080B4B7B6012
:1026B0000FE00B4B7B600CE0082000F051F87860D5
:1026C00007E00C2000F04CF8786002E0034B7B60E0
:1026D00000BF7B6818460837BD4680BD0024F40063
:1026E00000127A0080B582B000AF7860FFF720FF5B
:1026F00003461B0903F00F03044AD35C1A467B68A8
:10270000D34018460837BD4680BD00BF906E000814
:1027100080B582B000AF7860FFF718FF03469B0AD0
:10272000044AD35C1A467B68D34018460837BD4636
:1027300080BD00BFA06E000880B582B000AF786099
:10274000FFF712FF03465B0B044AD35C1A467B6813
:10275000D34018460837BD4680BD00BFA06E0008B4
:1027600090B587B000AF786000237B610023FB60E9
:1027700000233B61FFF706FFF860FB68002B04D0E5
:10278000FB68B3F5800F03D005E01C4B7B6105E0CF
:102790001B4B7B6102E0194B7B6100BF7B68082B00
:1027A00014D1FFF727FF02467B69B3FBF2F4FFF772
:1027B000F7FE034603FB04F4FFF700FF03461B0C80
:1027C00001335B00B4FBF3F33B6111E0FFF712FF51
:1027D00002467B69B3FBF2F4FFF7E2FE034603FB1C
:1027E00004F4FFF7F9FE03461B0FB4FBF3F33B6160
:1027F0003B6918461C37BD4690BD00BF0024F4005D
:1028000000127A0080B483B000AF7860044A7B681D
:10281000136000BF0C37BD465DF8047B704700BFF6
:10282000E000002080B483B000AF7860054B1A68E8
:1028300004497B6813430B6000BF0C37BD465DF84D
:10284000047B7047003C014080B483B000AF7860E7
:10285000064B1A687B68DB43044913400B6000BFDA
:102860000C37BD465DF8047B704700BF003C01405B
:1028700080B483B000AF7860054B5A6804497B6828
:1028800013434B6000BF0C37BD465DF8047B7047B7
:10289000003C014080B483B000AF7860064B5A68BA
:1028A0007B68DB43044913404B6000BF0C37BD46D7
:1028B0005DF8047B704700BF003C014080B483B0EA
:1028C00000AF7860054B9A6804497B6813438B60BE
:1028D00000BF0C37BD465DF8047B7047003C0140EB
:1028E00080B483B000AF7860064B9A687B68DB43A6
:1028F000044913408B6000BF0C37BD465DF8047B74
:10290000704700BF003C014080B483B000AF7860E6
:10291000054BDA6804497B681343CB6000BF0C3772
:10292000BD465DF8047B7047003C014080B483B035
:1029300000AF7860064BDA687B68DB4304491340DC
:10294000CB6000BF0C37BD465DF8047B704700BF0D
:10295000003C014080B584B000AF78600023FB7379
:102960007B681B79002B65D07B681B68002B6BD0C4
:102970007B685B79022B1CD0022B25DC002B02D05C
:10298000012B0BD020E07B681B681846FFF782FF05
:102990007B681B681846FFF745FF18E07B681B68DB
:1029A0001846FFF751FF7B681B681846FFF760FF6A
:1029B0000DE07B681B681846FFF734FF7B681B68D7
:1029C0001846FFF755FF02E00123FB7300BF7B6849
:1029D0009B79002B38D07B689B79032B1CD0032B71
:1029E00025DC012B02D0022B0BD020E07B681B687A
:1029F0001846FFF79BFF7B681B681846FFF75EFFD2
:102A000022E07B681B681846FFF76AFF7B681B683B
:102A10001846FFF779FF17E07B681B681846FFF739
:102A20004DFF7B681B681846FFF76EFF0CE0012323
:102A3000FB7309E07B681B681846FFF705FF7B689E
:102A40001B681846FFF726FFFB7B18461037BD466C
:102A500080BD000080B400AF034B1B681846BD4624
:102A60005DF8047B704700BFE000002080B500AF38
:102A7000FFF7F0FF0246054B9B685B0B03F0070373
:102A80000349CB5C22FA03F3184680BD00380240AC
:102A9000A06E000880B483B000AF786039607B68B6
:102AA0000F221A60124B9B6803F003027B685A6086
:102AB0000F4B9B6803F0F0027B689A600C4B9B689D
:102AC00003F4E0527B68DA60094B9B68DB0803F48F
:102AD000E0527B681A61074B1B6803F00F023B68EA
:102AE0001A6000BF0C37BD465DF8047B704700BF1D
:102AF00000380240003C024080B485B000AF7860EE
:102B00007B6803F00703FB600C4BDB68BB60BA68B3
:102B10004FF6FF031340BB60FB681A02BB68134308
:102B200043F0BF6343F40033BB60044ABB68D36027
:102B300000BF1437BD465DF8047B704700ED00E030
:102B400080B400AF044BDB681B0A03F00703184690
:102B5000BD465DF8047B704700ED00E080B483B0B3
:102B600000AF0346FB7197F90730002B0BDBFB79B5
:102B700003F01F02074997F907305B09012000FAAB
:102B800002F241F8232000BF0C37BD465DF8047BFC
:102B9000704700BF00E100E080B483B000AF03469F
:102BA0003960FB7197F90730002B0ADB3B68DAB21A
:102BB0000C4997F907301201D2B20B4483F8002375
:102BC0000AE03B68DAB20849FB7903F00F03043BE3
:102BD0001201D2B20B441A7600BF0C37BD465DF825
:102BE000047B704700E100E000ED00E080B489B0B4
:102BF00000AFF860B9607A60FB6803F00703FB611F
:102C0000FB69C3F10703042B28BF0423BB61FB69E5
:102C10000433062B02D9FB69033B00E000237B61F0
:102C20004FF0FF32BB6902FA03F3DA43BB681A4084
:102C30007B699A404FF0FF317B6901FA03F3D94376
:102C40007B680B40134318462437BD465DF8047B70
:102C5000704780B582B000AF78607868FFF74CFFAE
:102C600000BF0837BD4680BD80B586B000AF0346C3
:102C7000B9607A60FB7300237B61FFF761FF7861C5
:102C80007A68B9687869FFF7B1FF024697F90F30A3
:102C900011461846FFF780FF00BF1837BD4680BDBC
:102CA00080B582B000AF0346FB7197F90730184634
:102CB000FFF754FF00BF0837BD4680BD80B500AFA9
:102CC0000E4B1B680D4A43F4007313600B4B1B68DB
:102CD0000A4A43F480631360084B1B68074A43F4B5
:102CE000807313600320FFF7B4FF0F20FFF7EEF9A6
:102CF000FFF7C0F90023184680BD00BF003C02402A
:102D000080B400AF064B1B781A46064B1B68134471
:102D1000044A136000BFBD465DF8047B704700BFE6
:102D2000D8000020E402002080B582B000AF7860B7
:102D30007B68002B01D1012341E07B6893F83D3093
:102D4000DBB2002B06D17B68002283F83C20786838
:102D500000F039F87B68022283F83D207B681A680E
:102D60007B6804331946104600F0D8F97B680122CD
:102D700083F846207B68012283F83E207B6801228D
:102D800083F83F207B68012283F840207B68012282
:102D900083F841207B68012283F842207B6801226E
:102DA00083F843207B68012283F844207B6801225A
:102DB00083F845207B68012283F83D2000231846D4
:102DC0000837BD4680BD80B483B000AF786000BFD7
:102DD0000C37BD465DF8047B7047000080B485B0B9
:102DE00000AF78607B6893F83D30DBB2012B01D0F7
:102DF00001234EE07B68022283F83D207B681B683C
:102E0000DA687B681B6842F00102DA607B681B6845
:102E1000234A934222D07B681B68B3F1804F1DD0B8
:102E20007B681B681F4A934218D07B681B681E4A48
:102E3000934213D07B681B681C4A93420ED07B6878
:102E40001B681B4A934209D07B681B68194A93424E
:102E500004D07B681B68184A934211D17B681B68B9
:102E60009B6803F00703FB60FB68062B10D07B68B0
:102E70001B681A687B681B6842F001021A6007E051
:102E80007B681B681A687B681B6842F001021A6045
:102E9000002318461437BD465DF8047B704700BF19
:102EA000000001400004004000080040000C004009
:102EB00000040140004001400018004080B582B08D
:102EC00000AF78607B681B681B6903F00203022B6C
:102ED00022D17B681B68DB6803F00203022B1BD145
:102EE0007B681B686FF002021A617B6801221A7707
:102EF0007B681B689B6903F00303002B03D0786891
:102F000000F0EEF805E0786800F0E0F8786800F08E
:102F1000F1F87B6800221A777B681B681B6903F055
:102F20000403042B22D17B681B68DB6803F00403D5
:102F3000042B1BD17B681B686FF004021A617B684D
:102F400002221A777B681B689B6903F44073002B8D
:102F500003D0786800F0C4F805E0786800F0B6F8AF
:102F6000786800F0C7F87B6800221A777B681B68D6
:102F70001B6903F00803082B22D17B681B68DB6800
:102F800003F00803082B1BD17B681B686FF0080255
:102F90001A617B6804221A777B681B68DB6903F07F
:102FA0000303002B03D0786800F09AF805E07868F6
:102FB00000F08CF8786800F09DF87B6800221A77A2
:102FC0007B681B681B6903F01003102B22D17B6800
:102FD0001B68DB6803F01003102B1BD17B681B6898
:102FE0006FF010021A617B6808221A777B681B68F1
:102FF000DB6903F44073002B03D0786800F070F8AD
:1030000005E0786800F062F8786800F073F87B6893
:1030100000221A777B681B681B6903F00103012BF0
:103020000ED17B681B68DB6803F00103012B07D11D
:103030007B681B686FF001021A617868FEF7D6FFA3
:103040007B681B681B6903F08003802B0ED17B68B3
:103050001B68DB6803F08003802B07D17B681B684B
:103060006FF080021A61786800F002F97B681B68D3
:103070001B6903F04003402B0ED17B681B68DB68A3
:1030800003F04003402B07D17B681B686FF04002C0
:103090001A61786800F038F87B681B681B6903F0D8
:1030A0002003202B0ED17B681B68DB6803F0200314
:1030B000202B07D17B681B686FF020021A617868AB
:1030C00000F0CCF800BF0837BD4680BD80B483B0A7
:1030D00000AF786000BF0C37BD465DF8047B7047D9
:1030E00080B483B000AF786000BF0C37BD465DF898
:1030F000047B704780B483B000AF786000BF0C37AA
:10310000BD465DF8047B704780B483B000AF786043
:1031100000BF0C37BD465DF8047B704780B485B0B6
:1031200000AF786039607B681B68FB607B68404A51
:10313000934213D07B68B3F1804F0FD07B683D4A38
:1031400093420BD07B683C4A934207D07B683B4A52
:10315000934203D07B683A4A934208D1FB6823F03C
:103160007003FB603B685B68FA681343FB607B6835
:103170002F4A93422BD07B68B3F1804F27D07B68D6
:103180002C4A934223D07B682B4A93421FD07B6802
:103190002A4A93421BD07B68294A934217D07B6806
:1031A000284A934213D07B68274A93420FD07B680A
:1031B000264A93420BD07B68254A934207D07B680E
:1031C000244A934203D07B68234A934208D1FB6888
:1031D00023F44073FB603B68DB68FA681343FB60D1
:1031E000FB6823F080023B685B691343FB607B68EC
:1031F000FA681A603B689A687B68DA623B681A680A
:103200007B689A627B680A4A934203D07B680C4AC7
:10321000934203D13B681A697B681A637B68012279
:103220005A6100BF1437BD465DF8047B704700BF8C
:10323000000001400004004000080040000C004075
:1032400000040140004001400044014000480140AA
:1032500000180040001C00400020004080B483B0F3
:1032600000AF786000BF0C37BD465DF8047B704747
:1032700080B483B000AF786000BF0C37BD465DF806
:10328000047B704780B483B000AF78607B68DB68F4
:1032900003F40053B3F5005F0CBF01230023DBB23E
:1032A00018460C37BD465DF8047B704780B483B088
:1032B00000AF786039607B681B6923F440523B683B
:1032C0001A437B681A6100BF0C37BD465DF8047B6A
:1032D000704780B483B000AF786039607B685B6909
:1032E00023F440723B681A437B685A6100BF0C3775
:1032F000BD465DF8047B70472DE9B04FC0B000AF0C
:10330000C7F8FC00C7F8F810C7F8F420C7F8F03089
:10331000D7F8F430B3F5004F40F00C81D7F8F8300F
:103320000022C7F8E830C7F8EC20D7E93A45224632
:103330002B46911839665B417B66D7E918232146F5
:1033400012EB0108294643EB01094FF000024FF050
:1033500000034FEAC90343EA58734FEAC802904694
:103360009946234618EB0303C7F8E0302B4649EB98
:103370000303C7F8E430D7F8F03000229A469346AA
:103380001AEB0A03BB654BEB0B03FB65D7E916236E
:10339000D7E93801FDF788F902460B46644BA3FBD9
:1033A00002235B099BB21B019CB2D7F8F8300022C4
:1033B000C7F8D830C7F8DC20D7E9368942464B46F3
:1033C000911839655B417B65D7E914234146511853
:1033D000B96449464B41FB644FF000024FF00003D3
:1033E000D7E912AB5946CB00514643EA51735146D7
:1033F000CA0010461946034642469B18C7F8D0300B
:103400004B460A4642EB0303C7F8D430D7F8F030F6
:103410000022C7F8C830C7F8CC20D7E932120B46D3
:10342000DB183B64134642EB03037B64D7E91023AC
:10343000D7E93401FDF738F902460B4611463C4BFB
:10344000A3FB01235B09642202FB03F3CB1ADB001D
:1034500003F13202364BA3FB02235B099BB25B00F4
:103460009BB203F4F8739BB223449CB2D7F8F830B4
:103470000022C7F8C030C7F8C420D7E930894246D7
:103480004B469118B9635B41FB63D7E90E23414674
:103490005118396349464B417B634FF000024FF0AE
:1034A0000003D7E90CAB5946CB00514643EA5173B0
:1034B0005146CA0010461946034642469B18C7F8B3
:1034C000B8304B460A4642EB0303C7F8BC30D7F886
:1034D000F0300022C7F8B030C7F8B420D7E92C127A
:1034E0000B46DB18BB62134642EB0303FB62D7E9D2
:1034F0000A23D7E92E01FDF7D7F802460B460C4BFD
:10350000A3FB02135B09642101FB03F3D31ADB0065
:103510003233074AA2FB03235B099BB203F0070384
:103520009BB223449BB21A46D7F8FC309A6008E15C
:103530001F85EB51D7F8F8300022C7F8A830C7F83C
:10354000AC20D7E92A8942464B46911839625B4143
:103550007B62D7E9082341465418494643EB0105ED
:103560004FF000024FF00003EB0043EA5473E20017
:1035700014461D464346E318C7F8A0304B4645EBBA
:103580000303C7F8A430D7F8F0300022C7F898300A
:10359000C7F89C204FF000024FF00003D7E9264502
:1035A00029468B00214643EA917321468A00D7E9D8
:1035B0002801FDF779F802460B46654BA3FB022371
:1035C0005B099BB21B019CB2D7F8F8300022C7F808
:1035D0009030C7F89420D7E9248942464B46911889
:1035E000B9615B41FB61D7E9062341465118396156
:1035F00049464B417B614FF000024FF00003D7E991
:1036000004AB5946CB00514643EA51735146CA00B8
:1036100010461946034642469B18C7F888304B4669
:103620000A4642EB0303C7F88C30D7F8F03000228B
:10363000C7F88030C7F884204FF000024FF0000335
:10364000D7E9208949468B00414643EA91734146B8
:103650008A00D7E92201FDF727F802460B461146FA
:103660003B4BA3FB01235B09642202FB03F3CB1A50
:103670001B013233364AA2FB03235B099BB203F0E2
:10368000F0039BB223449CB2D7F8F8300022BB670A
:10369000FA67D7E91E8942464B469118B9605B41EB
:1036A000FB60D7E9022341465118396049464B4136
:1036B0007B604FF000024FF00003D7E900AB5946A2
:1036C000CB00514643EA51735146CA001046194691
:1036D000034642469B183B674B460A4642EB0303B0
:1036E0007B67D7F8F0300022BB66FA664FF0000225
:1036F0004FF00003D7E91A8949468B00414643EA57
:10370000917341468A00D7E91C01FCF7CDFF0246C0
:103710000B460F4BA3FB02135B09642101FB03F370
:10372000D31A1B0132330A4AA2FB03235B099BB263
:1037300003F00F039BB223449BB21A46D7F8FC3028
:103740009A6000BF07F58077BD46BDE8B08F00BF27
:103750001F85EB5180B588B000AF786039600123D8
:10376000FB770023BB617868FFF78CFD0346002BD5
:103770005ED17B68DB6823F4164323F00C033A68C0
:1037800051683A68D26811433A68126911433A683D
:1037900092690A431A437B68DA603B689B68194662
:1037A0007868FFF783FD3B685B6919467868FFF727
:1037B00090FD07F108031846FEF72AFF7B681F4AB1
:1037C000934202D17B69BB6121E07B681C4A934232
:1037D00002D13B69BB611AE07B681A4A934202D16D
:1037E0003B69BB6113E07B68174A934202D17B6956
:1037F000BB610CE07B68154A934202D13B69BB6117
:1038000005E07B68124A934201D13B69BB61BB6909
:10381000002B0DD03B681B68002B09D00023FB77E1
:103820003B689A693B681B68B9697868FFF764FD73
:10383000FB7F18462037BD4680BD00BF0010014009
:10384000004400400048004000140140004C00408B
:103850000050004080B483B000AF78607B6803F113
:1038600008027B685A607B684FF0FF329A607B6881
:1038700003F108027B68DA607B6803F108027B6869
:103880001A617B6800221A6000BF0C37BD465DF8E4
:10389000047B704780B483B000AF78607B680022FF
:1038A0001A6100BF0C37BD465DF8047B704780B4D9
:1038B00085B000AF786039607B685B68FB603B680F
:1038C000FA685A60FB689A683B689A60FB689B6874
:1038D0003A685A60FB683A689A603B687A681A618D
:1038E0007B681B685A1C7B681A6000BF1437BD4692
:1038F0005DF8047B704780B485B000AF78603960B4
:103900003B681B68BB60BB68B3F1FF3F03D17B68BA
:103910001B69FB600CE07B680833FB6002E0FB681E
:103920005B68FB60FB685B681B68BA689A42F6D20A
:10393000FB685A683B685A603B685B683A689A6003
:103940003B68FA689A60FB683A685A603B687A6834
:103950001A617B681B685A1C7B681A6000BF1437A9
:10396000BD465DF8047B704780B485B000AF7860D9
:103970007B681B69FB607B685B687A6892689A6009
:103980007B689B687A6852685A60FB685B687A68F3
:103990009A4203D17B689A68FB685A607B68002270
:1039A0001A61FB681B685A1EFB681A60FB681B687B
:1039B00018461437BD465DF8047B704780B584B067
:1039C00000AF786039607B68FB60FB68002B0BD12F
:1039D0004FF0500383F31188BFF36F8FBFF34F8F06
:1039E000BB6000BF00BFFDE702F086FEFB681A68FF
:1039F000FB68DB6BF968096C01FB03F31A44FB6895
:103A00009A60FB6800229A63FB681A68FB685A6038
:103A1000FB681A68FB68DB6B013BF968096C01FB0A
:103A200003F31A44FB68DA60FB68FF2283F8442042
:103A3000FB68FF2283F845203B68002B14D1FB680C
:103A40001B69002B1AD0FB681033184601F090FB5D
:103A50000346002B12D00D4B4FF080521A60BFF37B
:103A60004F8FBFF36F8F09E0FB6810331846FFF7E5
:103A7000F1FEFB6824331846FFF7ECFE02F06EFE01
:103A8000012318461037BD4680BD00BF04ED00E09D
:103A900080B58EB002AFF860B9607A603B60FB68B9
:103AA000002B0BD14FF0500383F31188BFF36F8FBE
:103AB000BFF34F8FBB6200BF00BFFDE73B68002B29
:103AC0000BD14FF0500383F31188BFF36F8FBFF317
:103AD0004F8F7B6200BF00BFFDE77B68002B02D0E9
:103AE000BB68002B01D0012300E00023002B0BD189
:103AF0004FF0500383F31188BFF36F8FBFF34F8FE5
:103B00003B6200BF00BFFDE77B68002B02D1BB68B2
:103B1000002B01D1012300E00023002B0BD14FF03B
:103B2000500383F31188BFF36F8FBFF34F8FFB6197
:103B300000BF00BFFDE750237B617B69502B0BD09A
:103B40004FF0500383F31188BFF36F8FBFF34F8F94
:103B5000BB6100BF00BFFDE77B693B68FB62FB6A9E
:103B6000002B0DD0FB6A012283F8462097F83820FD
:103B7000FB6A009313467A68B968F86800F040F869
:103B8000FB6A18463037BD4680BD80B58AB002AFAB
:103B9000F860B9601346FB71FB68002B0BD14FF046
:103BA000500383F31188BFF36F8FBFF34F8F3B61D7
:103BB00000BF00BFFDE7FB68BA6802FB03F3FB61CF
:103BC000FB695033184602F077FAB861BB69002BE5
:103BD00011D0BB697B617B6950337B61BB6900227B
:103BE00083F84620FA79BB69009313467A69B9686D
:103BF000F86800F005F8BB6918462037BD4680BD5F
:103C000080B584B000AFF860B9607A60FB70BB68C3
:103C1000002B03D1BB69BA691A6002E0BB697A68FC
:103C20001A60BB69FA68DA63BB69BA681A64012171
:103C3000B869FFF7C3FEBB69FA7883F84C2000BF70
:103C40001037BD4680BD80B586B000AF7860396062
:103C50007B68002B0BD14FF0500383F31188BFF327
:103C60006F8FBFF34F8F3B6100BF00BFFDE73A6826
:103C70007B689A420BD94FF0500383F31188BFF34E
:103C80006F8FBFF34F8FFB6000BF00BFFDE70222C5
:103C900000217868FFF779FF78617B69002B02D0FB
:103CA0007B693A689A637B6918461837BD4680BDC0
:103CB00080B58EB000AFF860B9607A603B600023D9
:103CC0007B63FB683B633B6B002B0BD14FF05003D6
:103CD00083F31188BFF36F8FBFF34F8FBB6200BFB9
:103CE00000BFFDE7BB68002B03D13B6B1B6C002BB7
:103CF00001D1012300E00023002B0BD14FF0500332
:103D000083F31188BFF36F8FBFF34F8F7B6200BFC8
:103D100000BFFDE73B68022B03D13B6BDB6B012B44
:103D200001D1012300E00023002B0BD14FF0500301
:103D300083F31188BFF36F8FBFF34F8F3B6200BFD8
:103D400000BFFDE701F0DAFB0346002B02D17B68E0
:103D5000002B01D1012300E00023002B0BD14FF0F9
:103D6000500383F31188BFF36F8FBFF34F8FFB6155
:103D700000BF00BFFDE702F0BFFC3B6B9A6B3B6BE3
:103D8000DB6B9A4202D33B68022B29D13A68B968AF
:103D9000386B00F05BFBF8623B6B5B6A002B10D06A
:103DA0003B6B2433184601F0E3F90346002B13D094
:103DB0003F4B4FF080521A60BFF34F8FBFF36F8FAE
:103DC0000AE0FB6A002B07D0394B4FF080521A6093
:103DD000BFF34F8FBFF36F8F02F0C0FC012363E08E
:103DE0007B68002B03D102F0B9FC00235CE07B6B05
:103DF000002B06D107F11403184601F01DFA012328
:103E00007B6302F0ABFC00F085FF02F075FC3B6BBE
:103E100093F844305BB2B3F1FF3F03D13B6B002218
:103E200083F844203B6B93F845305BB2B3F1FF3F1E
:103E300003D13B6B002283F8452002F08FFC3A1D32
:103E400007F114031146184601F00CFA0346002B43
:103E500024D1386B00F0F2FB0346002B18D03B6BEB
:103E600010337A681146184601F030F9386B00F0CB
:103E70007DFB00F05DFF0346002B7FF47CAF0C4B15
:103E80004FF080521A60BFF34F8FBFF36F8F72E70E
:103E9000386B00F06BFB00F04BFF6CE7386B00F009
:103EA00065FB00F045FF002318463837BD4680BD4E
:103EB00004ED00E080B590B000AFF860B9607A60C2
:103EC0003B60FB68BB63BB6B002B0BD14FF0500317
:103ED00083F31188BFF36F8FBFF34F8FBB6200BFB7
:103EE00000BFFDE7BB68002B03D1BB6B1B6C002B35
:103EF00001D1012300E00023002B0BD14FF0500330
:103F000083F31188BFF36F8FBFF34F8F7B6200BFC6
:103F100000BFFDE73B68022B03D1BB6BDB6B012BC2
:103F200001D1012300E00023002B0BD14FF05003FF
:103F300083F31188BFF36F8FBFF34F8F3B6200BFD6
:103F400000BFFDE702F0B8FCEFF311824FF0500321
:103F500083F31188BFF36F8FBFF34F8FFA61BB619B
:103F6000FB697B63BB6B9A6BBB6BDB6B9A4202D3C7
:103F70003B68022B2FD1BB6B93F8453087F8333069
:103F8000BB6B9B6BFB623A68B968B86B00F05EFA7A
:103F900097F93330B3F1FF3F12D1BB6B5B6A002B53
:103FA00016D0BB6B2433184601F0E2F80346002B11
:103FB0000ED07B68002B0BD07B6801221A6007E0D3
:103FC00097F833300133DBB25AB2BB6B83F845202C
:103FD0000123FB6301E00023FB637B6B7B617B6957
:103FE00083F3118800BFFB6B18464037BD4680BD88
:103FF00080B58CB000AFF860B9607A600023FB62D6
:10400000FB68BB62BB6A002B0BD14FF0500383F3FC
:104010001188BFF36F8FBFF34F8F3B6200BF00BFAC
:10402000FDE7BB68002B03D1BB6A1B6C002B01D1E1
:10403000012300E00023002B0BD14FF0500383F34A
:104040001188BFF36F8FBFF34F8FFB6100BF00BFBD
:10405000FDE701F053FA0346002B02D17B68002BE9
:1040600001D1012300E00023002B0BD14FF05003BE
:1040700083F31188BFF36F8FBFF34F8FBB6100BF16
:1040800000BFFDE702F038FBBB6A9B6B7B627B6A7B
:10409000002B1FD0B968B86A00F042FA7B6A5A1E3A
:1040A000BB6A9A63BB6A1B69002B0FD0BB6A1033D3
:1040B000184601F05DF80346002B07D03C4B4FF04B
:1040C00080521A60BFF34F8FBFF36F8F02F046FB31
:1040D000012369E07B68002B03D102F03FFB002342
:1040E00062E0FB6A002B06D107F11003184601F0CD
:1040F000A3F80123FB6202F031FB00F00BFE02F09B
:10410000FBFABB6A93F844305BB2B3F1FF3F03D1D3
:10411000BB6A002283F84420BB6A93F845305BB247
:10412000B3F1FF3F03D1BB6A002283F8452002F0C0
:1041300015FB3A1D07F110031146184601F092F8DD
:104140000346002B23D1B86A00F062FA0346002B25
:1041500017D0BB6A24337A681146184600F0B6FFC0
:10416000B86A00F003FA00F0E3FD0346002B89D1A2
:104170000F4B4FF080521A60BFF34F8FBFF36F8F1A
:1041800080E7B86A00F0F2F900F0D2FD7AE7B86A89
:1041900000F0ECF900F0CCFDB86A00F039FA034603
:1041A000002B3FF46FAF002318463037BD4680BD6B
:1041B00004ED00E080B58EB000AF78603960002378
:1041C0007B637B68FB6200233B63FB6A002B0BD1A4
:1041D0004FF0500383F31188BFF36F8FBFF34F8FFE
:1041E0003B6200BF00BFFDE7FB6A1B6C002B0BD0DE
:1041F0004FF0500383F31188BFF36F8FBFF34F8FDE
:10420000FB6100BF00BFFDE701F078F90346002B1A
:1042100002D13B68002B01D1012300E00023002BD9
:104220000BD14FF0500383F31188BFF36F8FBFF3AF
:104230004F8FBB6100BF00BFFDE702F05DFAFB6A74
:104240009B6BBB62BB6A002B24D0BB6A5A1EFB6A05
:104250009A63FB6A1B68002B04D101F0C9FA02467D
:10426000FB6A9A60FB6A1B69002B0FD0FB6A103354
:10427000184600F07DFF0346002B07D0544B4FF04B
:1042800080521A60BFF34F8FBFF36F8F02F066FA50
:10429000012398E03B68002B12D13B6B002B0BD025
:1042A0004FF0500383F31188BFF36F8FBFF34F8F2D
:1042B0007B6100BF00BFFDE702F050FA002382E0FF
:1042C0007B6B002B06D107F10C03184600F0B4FFFE
:1042D00001237B6302F042FA00F01CFD02F00CFAAD
:1042E000FB6A93F844305BB2B3F1FF3F03D1FB6A42
:1042F000002283F84420FB6A93F845305BB2B3F1A7
:10430000FF3F03D1FB6A002283F8452002F026FA22
:104310003A4607F10C031146184600F0A3FF034686
:10432000002B32D1F86A00F073F90346002B26D037
:10433000FB6A1B68002B09D102F0DEF9FB6A9B685F
:10434000184601F0F9F8386302F008FAFB6A2433E2
:104350003A681146184600F0B9FEF86A00F006F90E
:1043600000F0E6FC0346002B7FF467AF184B4FF0DC
:1043700080521A60BFF34F8FBFF36F8F5DE7F86A0B
:1043800000F0F4F800F0D4FC57E7F86A00F0EEF81B
:1043900000F0CEFCF86A00F03BF90346002B3FF436
:1043A0004CAF3B6B002B0DD002F0A6F9F86A00F081
:1043B00035F87862FB6A9B68796A184601F094F9CF
:1043C00002F0CCF9002318463837BD4680BD00BF47
:1043D00004ED00E080B584B000AF78607B68FB60DE
:1043E000FB68002B0BD14FF0500383F31188BFF310
:1043F0006F8FBFF34F8FBB6000BF00BFFDE7F86852
:1044000000F05EF9FB6893F84630002B02D1F868A3
:1044100001F020FF00BF1037BD4680BD80B485B0DD
:1044200000AF78607B685B6A002B06D07B681B6BF3
:104430001B68C3F13803FB6001E00023FB60FB68ED
:1044400018461437BD465DF8047B704780B586B0CA
:1044500000AFF860B9607A6000237B61FB689B6BFA
:104460003B61FB681B6C002B0DD1FB681B68002BAC
:104470004DD1FB689B68184601F0C6F87861FB686F
:1044800000229A6043E07B68002B19D1FB685868D2
:10449000FB681B6C1A46B96802F06EFCFB685A6830
:1044A000FB681B6C1A44FB685A60FB685A68FB681F
:1044B0009B689A422BD3FB681A68FB685A6026E017
:1044C000FB68D868FB681B6C1A46B96802F054FC9C
:1044D000FB68DA68FB681B6C5B421A44FB68DA60B5
:1044E000FB68DA68FB681B689A4207D2FB689A6827
:1044F000FB681B6C5B421A44FB68DA607B68022B2A
:1045000005D13B69002B02D03B69013B3B613B6914
:104510005A1CFB689A637B6918461837BD4680BDF4
:1045200080B582B000AF786039607B681B6C002B6F
:1045300018D07B68DA687B681B6C1A447B68DA6089
:104540007B68DA687B689B689A4203D37B681A6849
:104550007B68DA607B68D9687B681B6C1A463868B0
:1045600002F00AFC00BF0837BD4680BD80B584B0AC
:1045700000AF786002F0C0F87B6893F84530FB73B9
:1045800011E07B685B6A002B12D07B6824331846ED
:1045900000F0EEFD0346002B01D000F0C7FEFB7BD0
:1045A000013BDBB2FB7397F90F30002BE9DC00E035
:1045B00000BF7B68FF2283F8452002F0CFF802F0AD
:1045C0009BF87B6893F84430BB7311E07B681B69F0
:1045D000002B12D07B681033184600F0C9FD03464B
:1045E000002B01D000F0A2FEBB7B013BDBB2BB7312
:1045F00097F90E30002BE9DC00E000BF7B68FF225A
:1046000083F8442002F0AAF800BF1037BD4680BDF1
:1046100080B584B000AF786002F06EF87B689B6B69
:10462000002B02D10123FB6001E00023FB6002F0BC
:1046300095F8FB6818461037BD4680BD80B584B03C
:1046400000AF786002F058F87B689A6B7B68DB6B90
:104650009A4202D10123FB6001E00023FB6002F0DB
:104660007DF8FB6818461037BD4680BD80B485B024
:1046700000AF786039600023FB6014E00F4AFB68EC
:1046800052F83330002B0BD10C49FB683A6841F8E3
:1046900033200A4AFB68DB0013447A685A6006E05C
:1046A000FB680133FB60FB68072BE7D900BF00BF45
:1046B0001437BD465DF8047B704700BFE802002058
:1046C00080B485B000AF78600023FB6016E0104A2C
:1046D000FB68DB0013445B687A689A420BD10C4A92
:1046E000FB68002142F83310094AFB68DB001344E1
:1046F00000225A6006E0FB680133FB60FB68072B71
:10470000E5D900BF00BF1437BD465DF8047B704794
:10471000E802002080B586B000AFF860B9607A602A
:10472000FB687B6101F0E8FF7B6993F844305BB282
:10473000B3F1FF3F03D17B69002283F844207B69FA
:1047400093F845305BB2B3F1FF3F03D17B690022A0
:1047500083F8452002F002F87B699B6B002B06D1A1
:104760007B6924337A68B968184600F0D5FC78690B
:10477000FFF7FCFE00BF1837BD4680BD80B58EB088
:1047800004AFF860B9607A603B607B6B002B0BD1A3
:104790004FF0500383F31188BFF36F8FBFF34F8F38
:1047A0003B6200BF00BFFDE7BB6B002B0BD14FF09E
:1047B000500383F31188BFF36F8FBFF34F8FFB61FB
:1047C00000BF00BFFDE74FF4C0733B613B69B3F529
:1047D000C07F0BD04FF0500383F31188BFF36F8F6E
:1047E000BFF34F8FBB6100BF00BFFDE73B69BB6BF1
:1047F000002B1ED07B6B002B1BD0BB6B7B627B6ABC
:104800007A6B1A637B6A022283F87D21002303936B
:104810007B6A029307F1140301933B6B00933B689F
:104820007A68B968F86800F051F8786A00F01EF903
:1048300001E000237B617B6918462837BD4680BDB7
:1048400080B58CB004AFF860B9603B601346FB8064
:10485000FB889B00184601F02FFC78617B69002BD8
:104860000FD04FF4C07001F027FCF861FB69002BFA
:1048700003D0FB697A691A6305E0786901F0EAFC04
:1048800001E00023FB61FB69002B17D0FB690022CC
:1048900083F87D21FA8800230393FB690293FB6A66
:1048A0000193BB6A00933B68B968F86800F00EF8A2
:1048B000F86900F0DBF80123BB6102E04FF0FF3341
:1048C000BB61BB6918462037BD4680BD80B588B046
:1048D00000AFF860B9607A603B603B6B186B7B6837
:1048E0009B001A46A52102F0C3F93B6B1A6B7B684B
:1048F00003F18043013B9B001344BB61BB6923F080
:104900000703BB61BB6903F00703002B0BD04FF01B
:10491000500383F31188BFF36F8FBFF34F8F7B6119
:1049200000BF00BFFDE7BB68002B1FD00023FB6169
:1049300012E0BA68FB69134419783A6BFB691344B7
:1049400034330A461A70BA68FB6913441B78002B8B
:1049500006D0FB690133FB61FB690F2BE9D900E04D
:1049600000BF3B6B002283F8432003E03B6B002237
:1049700083F83420BB6A372B01D93723BB623B6BEA
:10498000BA6ADA623B6BBA6ADA643B6B00221A6578
:104990003B6B04331846FEF77DFF3B6B183318461C
:1049A000FEF778FF3B6B3A6B1A61BB6AC3F13802C2
:1049B0003B6B9A613B6B3A6B5A623B6B0022C3F8CC
:1049C00078213B6B002283F87C213B6B58334FF4FA
:1049D00090720021184602F04BF93B6B204ADA65D1
:1049E0003B6B204A1A663B6B1F4A5A66396B4FF085
:1049F00001024FF00003C1E93C233B6B43F20E324E
:104A0000A3F8F8203B6B4AF6CD32A3F8FA203B6BB3
:104A100041F23422A3F8FC203B6B4EF26D62A3F806
:104A2000FE203B6B4DF6EC62A3F800213B6B0522A8
:104A3000A3F802213B6B0B22A3F804213A68F96822
:104A4000B86901F027FD02463B6B1A60FB6A002B38
:104A500002D0FB6A3A6B1A6000BF2037BD4680BDAA
:104A6000804E0020E84E0020504F002080B582B0DC
:104A700000AF786001F040FE2D4B1B6801332C4ADB
:104A800013602C4B1B68002B09D12A4A7B681360EA
:104A9000274B1B68012B10D100F06CFC0DE0264B5E
:104AA0001B68002B09D1234B1B68DA6A7B68DB6A21
:104AB0009A4202D81F4A7B681360204B1B6801335F
:104AC0001E4A13601D4B1A687B685A647B68DA6A59
:104AD0001B4B1B689A4203D97B68DB6A184A136038
:104AE0007B68DA6A13469B0013449B00154A1A44FC
:104AF0007B68043319461046FEF7D9FE01F02EFEFE
:104B00000D4B1B68002B0ED00A4B1B68DA6A7B68C2
:104B1000DB6A9A4207D20C4B4FF080521A60BFF307
:104B20004F8FBFF36F8F00BF0837BD4680BD00BFFA
:104B3000FC07002028030020080800201808002097
:104B4000040800202C03002004ED00E080B584B0B0
:104B500000AF786001F0D0FD7B68002B02D12D4BB7
:104B60001B6800E07B68FB60FB6804331846FEF7B7
:104B7000FBFEFB689B6A002B04D0FB6818331846C9
:104B8000FEF7F2FE244B1B680133234A1360214BCE
:104B90001B68FA689A420BD1FB68043319461F4818
:104BA000FEF785FE1E4B1B6801331D4A136009E0AA
:104BB0001C4B1B68013B1B4A1360F86800F048FC63
:104BC00000F07CFC01F0CAFD174B1B68002B1CD0C9
:104BD000104B1B68FA689A4217D1144B1B68002BC4
:104BE0000BD04FF0500383F31188BFF36F8FBFF3E7
:104BF0004F8FBB6000BF00BFFDE70D4B4FF08052F1
:104C00001A60BFF34F8FBFF36F8F00BF1037BD46E1
:104C100080BD00BF2803002018080020D007002016
:104C2000E4070020FC0700200808002024080020DA
:104C300004ED00E080B58AB004AF0023BB60002320
:104C40007B603A46391D07F10803184601F000FA67
:104C500039687B68BA6802920193002300930023AD
:104C60000A4624492448FFF789FD0346234A136076
:104C7000224B1B68002B02D001237B6101E0002343
:104C80007B617B69012B02D100F01AFE78617B69A0
:104C9000012B1BD14FF0500383F31188BFF36F8FAB
:104CA000BFF34F8F3B6100BF154B1B685833154A4C
:104CB0001360154B4FF0FF321A60144B01221A603B
:104CC000134B00221A6001F073FC0FE07B69B3F113
:104CD000FF3F0BD14FF0500383F31188BFF36F8F69
:104CE000BFF34F8FFB6000BF00BFFDE700BF183769
:104CF000BD4680BD6C6E00084553000820080020AA
:104D000028030020E40000201C08002008080020E0
:104D10000008002080B400AF044B1B680133034A35
:104D2000136000BFBD465DF8047B70472408002077
:104D300080B584B000AF0023FB600023BB60424B12
:104D40001B68002B0BD14FF0500383F31188BFF386
:104D50006F8FBFF34F8F3B6000BF00BFFDE701F0D7
:104D6000CBFC394B1B68013B374A1360364B1B6841
:104D7000002B62D1354B1B68002B5ED02FE0344BEB
:104D8000DB68DB68FB60FB6818331846FEF7ECFD58
:104D9000FB6804331846FEF7E7FDFB68DA6A2D4B23
:104DA0001B689A4203D9FB68DB6A2A4A1360FB68D6
:104DB000DA6A13469B0013449B00274A1A44FB6897
:104DC000043319461046FEF772FDFB68DA6A234B7E
:104DD0001B68DB6A9A4202D3214B01221A601C4BEA
:104DE0001B68002BCBD1FB68002B01D000F066FBC9
:104DF0001C4B1B687B607B68002B10D000F046F8D2
:104E00000346002B02D0164B01221A607B68013B3F
:104E10007B607B68002BF1D1124B00221A60104B93
:104E20001B68002B09D00123BB600F4B4FF0805251
:104E30001A60BFF34F8FBFF36F8F01F08FFCBB6819
:104E400018461037BD4680BD24080020FC0700200E
:104E5000BC070020040800202C03002028030020A9
:104E6000100800200C08002004ED00E080B483B09E
:104E700000AF054B1B687B607B6818460C37BD464E
:104E80005DF8047B704700BF0008002080B586B045
:104E900000AF00237B614F4B1B68002B40F09080DC
:104EA0004D4B1B6801333B614B4A3B6913603B69C7
:104EB000002B21D1494B1B681B68002B0BD04FF0F6
:104EC000500383F31188BFF36F8FBFF34F8F3B60A5
:104ED00000BF00BFFDE7414B1B68FB60404B1B68F8
:104EE0003E4A13603E4AFB6813603E4B1B68013329
:104EF0003C4A136000F0E2FA3B4B1B683A699A4265
:104F000049D3364B1B681B68002B04D1364B4FF03E
:104F1000FF321A603FE0314B1B68DB68DB68BB6027
:104F2000BB685B687B603A697B689A4203D22E4A11
:104F30007B6813602FE0BB6804331846FEF714FD4E
:104F4000BB689B6A002B04D0BB6818331846FEF779
:104F50000BFDBB68DA6A254B1B689A4203D9BB6814
:104F6000DB6A224A1360BB68DA6A13469B0013446B
:104F70009B001F4A1A44BB68043319461046FEF7CB
:104F800096FCBB68DA6A1B4B1B68DB6A9A42B8D393
:104F900001237B61B5E7174B1B68DA6A1449134696
:104FA0009B0013449B000B441B68012B01D9012378
:104FB0007B61114B1B68002B07D001237B6104E050
:104FC0000E4B1B6801330D4A13607B691846183776
:104FD000BD4680BD2408002000080020B407002042
:104FE000B8070020140800201C0800200408002036
:104FF0002C03002028030020100800200C080020AB
:1050000080B485B000AF2B4B1B68002B03D02A4B1C
:1050100001221A6047E0284B00221A60274B1B68C8
:10502000FB6011E0FB68002B0BD14FF0500383F3C2
:105030001188BFF36F8FBFF34F8F7B6000BF00BF3E
:10504000FDE7FB68013BFB601D49FA6813469B00C6
:1050500013449B000B441B68002BE3D0FA681346F3
:105060009B0013449B00164A1344BB60BB685B68FB
:105070005A68BB685A60BB685A68BB6808339A4272
:1050800004D1BB685B685A68BB685A60BB685B68E0
:10509000DB680C4A1360094AFB681360094B1B6804
:1050A0005833094A136000BF1437BD465DF8047BCE
:1050B000704700BF240800201008002004080020CA
:1050C0002C03002028030020E400002080B584B0D9
:1050D00000AF786039607B68002B0BD14FF0500334
:1050E00083F31188BFF36F8FBFF34F8FFB6000BF57
:1050F00000BFFDE7074B1B68183319467868FEF7B9
:10510000FAFB0121386800F087FB00BF1037BD466D
:1051100080BD00BF2803002080B586B000AFF860D6
:10512000B9607A60FB68002B0BD14FF0500383F31A
:105130001188BFF36F8FBFF34F8F7B6100BF00BF3C
:10514000FDE70A4B1B6818331946F868FEF7AFFBFA
:105150007B68002B02D04FF0FF33BB607968B868E2
:1051600000F05AFB00BF1837BD4680BD2803002061
:1051700080B586B000AF78607B68DB68DB683B6138
:105180003B69002B0BD14FF0500383F31188BFF321
:105190006F8FBFF34F8FFB6000BF00BFFDE73B6920
:1051A00018331846FEF7E0FB1D4B1B68002B1DD182
:1051B0003B6904331846FEF7D7FB3B69DA6A194BA3
:1051C0001B689A4203D93B69DB6A164A13603B6944
:1051D000DA6A13469B0013449B00134A1A443B6946
:1051E000043319461046FEF762FB05E03B691833AD
:1051F00019460E48FEF75BFB3B69DA6A0C4B1B68ED
:10520000DB6A9A4205D901237B610A4B01221A60AD
:1052100001E000237B617B6918461837BD4680BDDD
:1052200024080020040800202C030020BC070020D4
:10523000280300201008002080B483B000AF7860FD
:10524000064B1A687B681A60054B1A687B685A60BF
:1052500000BF0C37BD465DF8047B70471408002082
:105260000008002080B588B000AF786039607B68A6
:10527000002B0BD14FF0500383F31188BFF36F8FD6
:10528000BFF34F8F3B6100BF00BFFDE73B68002BC2
:105290000BD14FF0500383F31188BFF36F8FBFF32F
:1052A0004F8FFB6000BF00BFFDE701F025FA1D4BEB
:1052B0001B68BB617B685B68BA69D31A7B613B681A
:1052C0001B68B3F1FF3F02D10023FB6123E07B6841
:1052D0001A68154B1B689A4207D07B685B68BA69ED
:1052E0009A4202D30123FB6115E03B681B687A698F
:1052F0009A420BD23B681A687B69D21A3B681A60E3
:105300007868FFF799FF0023FB6104E03B68002207
:105310001A600123FB6101F021FAFB69184620376E
:10532000BD4680BD000800201408002080B400AFF6
:10533000034B01221A6000BFBD465DF8047B704735
:105340001008002080B582B000AF786000F052F8FD
:10535000064B1B68012BF9D9054B4FF080521A60A0
:10536000BFF34F8FBFF36F8FF0E700BF2C03002018
:1053700004ED00E080B582B000AF00237B600CE05C
:105380007A6813469B0013449B00124A1344184644
:10539000FEF760FA7B6801337B607B68372BEFD9BF
:1053A0000D48FEF757FA0D48FEF754FA0C48FEF781
:1053B00051FA0C48FEF74EFA0B48FEF74BFA0B4B2E
:1053C000054A1A600A4B054A1A6000BF0837BD46F5
:1053D00080BD00BF2C0300208C070020A007002008
:1053E000BC070020D0070020E8070020B4070020F9
:1053F000B807002080B582B000AF19E001F07CF959
:10540000104BDB68DB687B607B6804331846FEF773
:10541000ABFA0D4B1B68013B0B4A13600B4B1B682F
:10542000013B0A4A136001F099F9786800F010F81E
:10543000064B1B68002BE1D100BF00BF0837BD46FB
:1054400080BD00BFD0070020FC070020E40700203B
:1054500080B584B000AF78607B685833184601F09F
:105460000FFC7B6893F87D31002B08D17B681B6BA8
:10547000184600F0EFFE786800F0ECFE19E07B685B
:1054800093F87D31012B03D1786800F0E3FE10E042
:105490007B6893F87D31022B0BD04FF0500383F3E0
:1054A0001188BFF36F8FBFF34F8FFB6000BF00BF4A
:1054B000FDE700BF1037BD4680BD000080B483B05B
:1054C00000AF0C4B1B681B68002B04D10A4B4FF03C
:1054D000FF321A6008E0074B1B68DB68DB687B6003
:1054E0007B685B68044A136000BF0C37BD465DF8FB
:1054F000047B7047B40700201C08002080B483B0F0
:1055000000AF0B4B1B68002B02D101237B6008E02E
:10551000084B1B68002B02D102237B6001E00023B3
:105520007B607B6818460C37BD465DF8047B70478E
:10553000080800202408002080B584B000AF7860FF
:105540007B68BB600023FB607B68002B51D0BB688D
:10555000DA6A2A4B1B68DB6A9A4241D2BB689B69B4
:10556000002B06DB254B1B68DB6AC3F13802BB68E6
:105570009A61BB685969BB68DA6A13469B00134499
:105580009B001F4A1344994222D1BB68043318463A
:10559000FEF7EAF9194B1B68DA6ABB68DA62BB6886
:1055A000DA6A184B1B689A4203D9BB68DB6A154A52
:1055B0001360BB68DA6A13469B0013449B00104AD1
:1055C0001A44BB68043319461046FEF770F904E02C
:1055D0000A4B1B68DA6ABB68DA620123FB6008E0E9
:1055E000BB68DA6C054B1B68DB6A9A4201D2012367
:1055F000FB60FB6818461037BD4680BD28030020BD
:105600002C0300200408002080B586B000AF78602D
:105610007B683B6100237B617B68002B58D02F4B5C
:105620001B683A699A420BD04FF0500383F31188FC
:10563000BFF36F8FBFF34F8FFB6000BF00BFFDE76D
:105640003B691B6D002B0BD14FF0500383F3118886
:10565000BFF36F8FBFF34F8FBB6000BF00BFFDE78D
:105660003B691B6D5A1E3B691A653B69DA6A3B69E7
:10567000DB6C9A422CD03B691B6D002B28D13B6917
:1056800004331846FEF770F93B69DA6C3B69DA625D
:105690003B69DB6AC3F138023B699A613B69DA6AAC
:1056A0000F4B1B689A4203D93B69DB6A0C4A1360B3
:1056B0003B69DA6A13469B0013449B00094A1A446B
:1056C0003B69043319461046FEF7F1F801237B616C
:1056D0007B6918461837BD4680BD00BF28030020EF
:1056E000040800202C03002080B588B000AF78604B
:1056F00039607B68BB6101237B617B68002B6CD0C8
:10570000BB691B6D002B0BD14FF0500383F3118845
:10571000BFF36F8FBFF34F8FFB6000BF00BFFDE78C
:10572000BB69DB6C3A689A4202D93B68FB6102E0D4
:10573000BB69DB6CFB61BB69DB6AFA699A424CD0DE
:10574000BB691B6D7A699A4247D1264B1B68BA69BF
:105750009A420BD14FF0500383F31188BFF36F8F40
:10576000BFF34F8FBB6000BF00BFFDE7BB69DB6AC3
:105770003B61BB69FA69DA62BB699B69002B04DB98
:10578000FB69C3F13802BB699A61BB6959693A691F
:1057900013469B0013449B00134A134499421CD1A7
:1057A000BB6904331846FEF7DFF8BB69DA6A0F4BB2
:1057B0001B689A4203D9BB69DB6A0C4A1360BB6958
:1057C000DA6A13469B0013449B00074A1A44BB69DC
:1057D000043319461046FEF76AF800BF2037BD466D
:1057E00080BD00BF280300202C03002004080020F7
:1057F00080B400AF074B1B68002B04D0054B1B681F
:105800001A6D01321A65034B1B681846BD465DF8D8
:10581000047B70472803002080B584B000AF786017
:105820003960214B1B68FB60204B1B680433184612
:10583000FEF79AF87B68B3F1FF3F0AD13B68002B73
:1058400007D01A4B1B68043319461948FEF72FF886
:1058500026E0FA687B681344BB60144B1B68BA6887
:105860005A60BA68FB689A4209D2124B1A680F4B09
:105870001B68043319461046FEF73DF810E00E4B46
:105880001A680A4B1B68043319461046FEF733F8B2
:105890000A4B1B68BA689A4202D2084ABB68136076
:1058A00000BF1037BD4680BD00080020280300203F
:1058B000E8070020B8070020B40700201C080020DB
:1058C00080B58AB004AF00237B6100F071FB1D4BF3
:1058D0001B68002B21D00023FB600023BB603A1D16
:1058E00007F1080107F10C03184600F0CBFB7968BB
:1058F000BB68FA68029201932D23009300230A46A5
:1059000011491248FEF73AFF0346114A1360104B43
:105910001B68002B01D001237B617B69002B0BD11D
:105920004FF0500383F31188BFF36F8FBFF34F8F96
:105930003B6100BF00BFFDE77B6918461837BD46D5
:1059400080BD00BF58080020746E0008495B000845
:105950005C08002080B588B002AFF860B9607A605A
:105960003B602C2000F0A8FB78617B69002B0DD0F8
:105970007B69002283F828207B6901933B6A0093AE
:105980003B687A68B968F86800F005F87B691846E2
:105990001837BD4680BD80B586B000AFF860B960ED
:1059A0007A603B60BB68002B0BD14FF0500383F350
:1059B0001188BFF36F8FBFF34F8F7B6100BF00BFB4
:1059C000FDE77B6A002B1ED000F0F2FA7B6AFA68D2
:1059D0001A607B6ABA689A617B6A3A68DA617B6AA4
:1059E0003A6A1A627B6A04331846FDF753FF7B68F4
:1059F000002B08D07B6A93F8283043F00403DAB216
:105A00007B6A83F8282000BF1837BD4680BD0000A0
:105A100080B58AB000AFF860B9607A603B6000235F
:105A20007B62FB68002B0BD14FF0500383F311888E
:105A3000BFF36F8FBFF34F8F3B6200BF00BFFDE727
:105A4000194B1B68002B2AD0BB683B617B687B61CC
:105A5000FB68BB61BB68052B18DCFFF74FFD0346F5
:105A6000022B09D1104B186807F1100100233A6B83
:105A7000FEF71EF9786212E00B4B186807F110016F
:105A800000230022FEF714F9786208E0064B18683C
:105A900007F1100100233A68FEF70CFA78627B6A7E
:105AA00018462837BD4680BD5808002080B588B00C
:105AB00002AF78603960234B1B68DB68DB687B6171
:105AC0007B6904331846FDF74FFF7B6993F8283054
:105AD00003F00403002B23D07B699A697B68D118FB
